{
  "contractName": "DentalInsuranceVerifier",
  "abi": [
    {
      "inputs": [],
      "stateMutability": "nonpayable",
      "type": "constructor"
    },
    {
      "anonymous": false,
      "inputs": [
        {
          "indexed": true,
          "internalType": "address",
          "name": "businessAddress",
          "type": "address"
        },
        {
          "indexed": false,
          "internalType": "string",
          "name": "name",
          "type": "string"
        },
        {
          "indexed": false,
          "internalType": "string",
          "name": "location",
          "type": "string"
        }
      ],
      "name": "BusinessVerified",
      "type": "event"
    },
    {
      "inputs": [
        {
          "internalType": "address",
          "name": "",
          "type": "address"
        }
      ],
      "name": "businesses",
      "outputs": [
        {
          "internalType": "bool",
          "name": "isVerified",
          "type": "bool"
        },
        {
          "internalType": "string",
          "name": "name",
          "type": "string"
        },
        {
          "internalType": "string",
          "name": "location",
          "type": "string"
        }
      ],
      "stateMutability": "view",
      "type": "function",
      "constant": true
    },
    {
      "inputs": [],
      "name": "owner",
      "outputs": [
        {
          "internalType": "address",
          "name": "",
          "type": "address"
        }
      ],
      "stateMutability": "view",
      "type": "function",
      "constant": true
    },
    {
      "inputs": [
        {
          "internalType": "address",
          "name": "_businessAddress",
          "type": "address"
        },
        {
          "internalType": "string",
          "name": "_name",
          "type": "string"
        },
        {
          "internalType": "string",
          "name": "_location",
          "type": "string"
        }
      ],
      "name": "verifyBusiness",
      "outputs": [],
      "stateMutability": "nonpayable",
      "type": "function"
    },
    {
      "inputs": [
        {
          "internalType": "address",
          "name": "_businessAddress",
          "type": "address"
        }
      ],
      "name": "isBusinessVerified",
      "outputs": [
        {
          "internalType": "bool",
          "name": "",
          "type": "bool"
        }
      ],
      "stateMutability": "view",
      "type": "function",
      "constant": true
    }
  ],
  "bytecode": "0x608060405234801561000f575f80fd5b50335f806101000a81548173ffffffffffffffffffffffffffffffffffffffff021916908373ffffffffffffffffffffffffffffffffffffffff160217905550610b658061005c5f395ff3fe608060405234801561000f575f80fd5b506004361061004a575f3560e01c80638da5cb5b1461004e578063b31e26e41461006c578063b67850c41461009e578063feca8957146100ba575b5f80fd5b6100566100ea565b6040516100639190610467565b60405180910390f35b610086600480360381019061008191906104bb565b61010d565b6040516100959392919061058a565b60405180910390f35b6100b860048036038101906100b391906106f9565b61024b565b005b6100d460048036038101906100cf91906104bb565b6103d4565b6040516100e19190610781565b60405180910390f35b5f8054906101000a900473ffffffffffffffffffffffffffffffffffffffff1681565b6001602052805f5260405f205f91509050805f015f9054906101000a900460ff169080600101805461013e906107c7565b80601f016020809104026020016040519081016040528092919081815260200182805461016a906107c7565b80156101b55780601f1061018c576101008083540402835291602001916101b5565b820191905f5260205f20905b81548152906001019060200180831161019857829003601f168201915b5050505050908060020180546101ca906107c7565b80601f01602080910402602001604051908101604052809291908181526020018280546101f6906107c7565b80156102415780601f1061021857610100808354040283529160200191610241565b820191905f5260205f20905b81548152906001019060200180831161022457829003601f168201915b5050505050905083565b5f8054906101000a900473ffffffffffffffffffffffffffffffffffffffff1673ffffffffffffffffffffffffffffffffffffffff163373ffffffffffffffffffffffffffffffffffffffff16146102d8576040517f08c379a00000000000000000000000000000000000000000000000000000000081526004016102cf90610867565b60405180910390fd5b60405180606001604052806001151581526020018381526020018281525060015f8573ffffffffffffffffffffffffffffffffffffffff1673ffffffffffffffffffffffffffffffffffffffff1681526020019081526020015f205f820151815f015f6101000a81548160ff02191690831515021790555060208201518160010190816103659190610a2b565b50604082015181600201908161037b9190610a2b565b509050508273ffffffffffffffffffffffffffffffffffffffff167fd9cf7b11b8546e55c6eb7f80baf5714817551e845f63041072092ce7bc30f5c583836040516103c7929190610afa565b60405180910390a2505050565b5f60015f8373ffffffffffffffffffffffffffffffffffffffff1673ffffffffffffffffffffffffffffffffffffffff1681526020019081526020015f205f015f9054906101000a900460ff169050919050565b5f73ffffffffffffffffffffffffffffffffffffffff82169050919050565b5f61045182610428565b9050919050565b61046181610447565b82525050565b5f60208201905061047a5f830184610458565b92915050565b5f604051905090565b5f80fd5b5f80fd5b61049a81610447565b81146104a4575f80fd5b50565b5f813590506104b581610491565b92915050565b5f602082840312156104d0576104cf610489565b5b5f6104dd848285016104a7565b91505092915050565b5f8115159050919050565b6104fa816104e6565b82525050565b5f81519050919050565b5f82825260208201905092915050565b5f5b8381101561053757808201518184015260208101905061051c565b5f8484015250505050565b5f601f19601f8301169050919050565b5f61055c82610500565b610566818561050a565b935061057681856020860161051a565b61057f81610542565b840191505092915050565b5f60608201905061059d5f8301866104f1565b81810360208301526105af8185610552565b905081810360408301526105c38184610552565b9050949350505050565b5f80fd5b5f80fd5b7f4e487b71000000000000000000000000000000000000000000000000000000005f52604160045260245ffd5b61060b82610542565b810181811067ffffffffffffffff8211171561062a576106296105d5565b5b80604052505050565b5f61063c610480565b90506106488282610602565b919050565b5f67ffffffffffffffff821115610667576106666105d5565b5b61067082610542565b9050602081019050919050565b828183375f83830152505050565b5f61069d6106988461064d565b610633565b9050828152602081018484840111156106b9576106b86105d1565b5b6106c484828561067d565b509392505050565b5f82601f8301126106e0576106df6105cd565b5b81356106f084826020860161068b565b91505092915050565b5f805f606084860312156107105761070f610489565b5b5f61071d868287016104a7565b935050602084013567ffffffffffffffff81111561073e5761073d61048d565b5b61074a868287016106cc565b925050604084013567ffffffffffffffff81111561076b5761076a61048d565b5b610777868287016106cc565b9150509250925092565b5f6020820190506107945f8301846104f1565b92915050565b7f4e487b71000000000000000000000000000000000000000000000000000000005f52602260045260245ffd5b5f60028204905060018216806107de57607f821691505b6020821081036107f1576107f061079a565b5b50919050565b7f4f6e6c7920746865206f776e65722063616e20706572666f726d2074686973205f8201527f616374696f6e0000000000000000000000000000000000000000000000000000602082015250565b5f61085160268361050a565b915061085c826107f7565b604082019050919050565b5f6020820190508181035f83015261087e81610845565b9050919050565b5f819050815f5260205f209050919050565b5f6020601f8301049050919050565b5f82821b905092915050565b5f600883026108e17fffffffffffffffffffffffffffffffffffffffffffffffffffffffffffffffff826108a6565b6108eb86836108a6565b95508019841693508086168417925050509392505050565b5f819050919050565b5f819050919050565b5f61092f61092a61092584610903565b61090c565b610903565b9050919050565b5f819050919050565b61094883610915565b61095c61095482610936565b8484546108b2565b825550505050565b5f90565b610970610964565b61097b81848461093f565b505050565b5b8181101561099e576109935f82610968565b600181019050610981565b5050565b601f8211156109e3576109b481610885565b6109bd84610897565b810160208510156109cc578190505b6109e06109d885610897565b830182610980565b50505b505050565b5f82821c905092915050565b5f610a035f19846008026109e8565b1980831691505092915050565b5f610a1b83836109f4565b9150826002028217905092915050565b610a3482610500565b67ffffffffffffffff811115610a4d57610a4c6105d5565b5b610a5782546107c7565b610a628282856109a2565b5f60209050601f831160018114610a93575f8415610a81578287015190505b610a8b8582610a10565b865550610af2565b601f198416610aa186610885565b5f5b82811015610ac857848901518255600182019150602085019450602081019050610aa3565b86831015610ae55784890151610ae1601f8916826109f4565b8355505b6001600288020188555050505b505050505050565b5f6040820190508181035f830152610b128185610552565b90508181036020830152610b268184610552565b9050939250505056fea2646970667358221220af45b2a525031433cf90fd9fd24dd2904bb063caf7fc2abd612d24586ef6a2b664736f6c63430008150033",
  "immutableReferences": {},
  "source": "// SPDX-License-Identifier: MIT\r\npragma solidity ^0.8.21;\r\n\r\ncontract DentalInsuranceVerifier {\r\n    address public owner;\r\n\r\n    struct Business {\r\n        bool isVerified;\r\n        string name;\r\n        string location;\r\n    }\r\n\r\n    mapping(address => Business) public businesses;\r\n\r\n    event BusinessVerified(address indexed businessAddress, string name, string location);\r\n\r\n    modifier onlyOwner() {\r\n        require(msg.sender == owner, \"Only the owner can perform this action\");\r\n        _;\r\n    }\r\n\r\n    constructor() {\r\n        owner = msg.sender;\r\n    }\r\n\r\n    function verifyBusiness(address _businessAddress, string memory _name, string memory _location) public onlyOwner {\r\n        businesses[_businessAddress] = Business(true, _name, _location);\r\n        emit BusinessVerified(_businessAddress, _name, _location);\r\n    }\r\n\r\n    function isBusinessVerified(address _businessAddress) public view returns (bool) {\r\n        return businesses[_businessAddress].isVerified;\r\n    }\r\n}\r\n",
  "sourcePath": "C:\\Users\\kyles\\Desktop\\InsuranceLedger\\dentalinsuranceclaims_kubl\\contracts\\DentalCompanyVerifiy.sol",
  "compiler": {
    "name": "solc",
    "version": "0.8.21+commit.d9974bed.Emscripten.clang"
  },
  "schemaVersion": "3.4.16",
  "updatedAt": "2024-07-24T15:05:18.703Z",
  "networkType": "ethereum",
  "devdoc": {
    "kind": "dev",
    "methods": {},
    "version": 1
  },
  "userdoc": {
    "kind": "user",
    "methods": {},
    "version": 1
  }
}